{
  "contractName": "SkywalkerFungible",
  "abi": [
    {
      "inputs": [
        {
          "internalType": "uint32",
          "name": "_chainId",
          "type": "uint32"
        },
        {
          "internalType": "string",
          "name": "_name",
          "type": "string"
        },
        {
          "internalType": "string",
          "name": "_symbol",
          "type": "string"
        }
      ],
      "stateMutability": "nonpayable",
      "type": "constructor"
    },
    {
      "anonymous": false,
      "inputs": [
        {
          "indexed": true,
          "internalType": "address",
          "name": "owner",
          "type": "address"
        },
        {
          "indexed": true,
          "internalType": "address",
          "name": "spender",
          "type": "address"
        },
        {
          "indexed": false,
          "internalType": "uint256",
          "name": "value",
          "type": "uint256"
        }
      ],
      "name": "Approval",
      "type": "event"
    },
    {
      "anonymous": false,
      "inputs": [
        {
          "indexed": false,
          "internalType": "bytes",
          "name": "from",
          "type": "bytes"
        },
        {
          "indexed": false,
          "internalType": "bytes",
          "name": "to",
          "type": "bytes"
        },
        {
          "indexed": false,
          "internalType": "uint256",
          "name": "value",
          "type": "uint256"
        }
      ],
      "name": "OmniverseTokenTransfer",
      "type": "event"
    },
    {
      "anonymous": false,
      "inputs": [
        {
          "indexed": true,
          "internalType": "address",
          "name": "previousOwner",
          "type": "address"
        },
        {
          "indexed": true,
          "internalType": "address",
          "name": "newOwner",
          "type": "address"
        }
      ],
      "name": "OwnershipTransferred",
      "type": "event"
    },
    {
      "anonymous": false,
      "inputs": [
        {
          "indexed": false,
          "internalType": "bytes",
          "name": "pk",
          "type": "bytes"
        },
        {
          "indexed": false,
          "internalType": "uint256",
          "name": "nonce",
          "type": "uint256"
        }
      ],
      "name": "TransactionExecuted",
      "type": "event"
    },
    {
      "anonymous": false,
      "inputs": [
        {
          "indexed": false,
          "internalType": "bytes",
          "name": "pk",
          "type": "bytes"
        },
        {
          "indexed": false,
          "internalType": "uint256",
          "name": "nonce",
          "type": "uint256"
        }
      ],
      "name": "TransactionSent",
      "type": "event"
    },
    {
      "anonymous": false,
      "inputs": [
        {
          "indexed": true,
          "internalType": "address",
          "name": "from",
          "type": "address"
        },
        {
          "indexed": true,
          "internalType": "address",
          "name": "to",
          "type": "address"
        },
        {
          "indexed": false,
          "internalType": "uint256",
          "name": "value",
          "type": "uint256"
        }
      ],
      "name": "Transfer",
      "type": "event"
    },
    {
      "inputs": [
        {
          "internalType": "address",
          "name": "owner",
          "type": "address"
        },
        {
          "internalType": "address",
          "name": "spender",
          "type": "address"
        }
      ],
      "name": "allowance",
      "outputs": [
        {
          "internalType": "uint256",
          "name": "",
          "type": "uint256"
        }
      ],
      "stateMutability": "view",
      "type": "function",
      "constant": true
    },
    {
      "inputs": [
        {
          "internalType": "address",
          "name": "spender",
          "type": "address"
        },
        {
          "internalType": "uint256",
          "name": "amount",
          "type": "uint256"
        }
      ],
      "name": "approve",
      "outputs": [
        {
          "internalType": "bool",
          "name": "",
          "type": "bool"
        }
      ],
      "stateMutability": "nonpayable",
      "type": "function"
    },
    {
      "inputs": [],
      "name": "cdTime",
      "outputs": [
        {
          "internalType": "uint256",
          "name": "",
          "type": "uint256"
        }
      ],
      "stateMutability": "view",
      "type": "function",
      "constant": true
    },
    {
      "inputs": [
        {
          "internalType": "address",
          "name": "spender",
          "type": "address"
        },
        {
          "internalType": "uint256",
          "name": "subtractedValue",
          "type": "uint256"
        }
      ],
      "name": "decreaseAllowance",
      "outputs": [
        {
          "internalType": "bool",
          "name": "",
          "type": "bool"
        }
      ],
      "stateMutability": "nonpayable",
      "type": "function"
    },
    {
      "inputs": [
        {
          "internalType": "address",
          "name": "spender",
          "type": "address"
        },
        {
          "internalType": "uint256",
          "name": "addedValue",
          "type": "uint256"
        }
      ],
      "name": "increaseAllowance",
      "outputs": [
        {
          "internalType": "bool",
          "name": "",
          "type": "bool"
        }
      ],
      "stateMutability": "nonpayable",
      "type": "function"
    },
    {
      "inputs": [],
      "name": "name",
      "outputs": [
        {
          "internalType": "string",
          "name": "",
          "type": "string"
        }
      ],
      "stateMutability": "view",
      "type": "function",
      "constant": true
    },
    {
      "inputs": [],
      "name": "owner",
      "outputs": [
        {
          "internalType": "address",
          "name": "",
          "type": "address"
        }
      ],
      "stateMutability": "view",
      "type": "function",
      "constant": true
    },
    {
      "inputs": [],
      "name": "renounceOwnership",
      "outputs": [],
      "stateMutability": "nonpayable",
      "type": "function"
    },
    {
      "inputs": [],
      "name": "symbol",
      "outputs": [
        {
          "internalType": "string",
          "name": "",
          "type": "string"
        }
      ],
      "stateMutability": "view",
      "type": "function",
      "constant": true
    },
    {
      "inputs": [],
      "name": "totalSupply",
      "outputs": [
        {
          "internalType": "uint256",
          "name": "",
          "type": "uint256"
        }
      ],
      "stateMutability": "view",
      "type": "function",
      "constant": true
    },
    {
      "inputs": [
        {
          "internalType": "bytes",
          "name": "",
          "type": "bytes"
        }
      ],
      "name": "transactionCache",
      "outputs": [
        {
          "components": [
            {
              "internalType": "uint128",
              "name": "nonce",
              "type": "uint128"
            },
            {
              "internalType": "uint32",
              "name": "chainId",
              "type": "uint32"
            },
            {
              "internalType": "bytes",
              "name": "initiateSC",
              "type": "bytes"
            },
            {
              "internalType": "bytes",
              "name": "from",
              "type": "bytes"
            },
            {
              "internalType": "bytes",
              "name": "payload",
              "type": "bytes"
            },
            {
              "internalType": "bytes",
              "name": "signature",
              "type": "bytes"
            }
          ],
          "internalType": "struct ERC6358TransactionData",
          "name": "txData",
          "type": "tuple"
        },
        {
          "internalType": "uint256",
          "name": "timestamp",
          "type": "uint256"
        }
      ],
      "stateMutability": "view",
      "type": "function",
      "constant": true
    },
    {
      "inputs": [
        {
          "internalType": "address",
          "name": "to",
          "type": "address"
        },
        {
          "internalType": "uint256",
          "name": "amount",
          "type": "uint256"
        }
      ],
      "name": "transfer",
      "outputs": [
        {
          "internalType": "bool",
          "name": "",
          "type": "bool"
        }
      ],
      "stateMutability": "nonpayable",
      "type": "function"
    },
    {
      "inputs": [
        {
          "internalType": "address",
          "name": "from",
          "type": "address"
        },
        {
          "internalType": "address",
          "name": "to",
          "type": "address"
        },
        {
          "internalType": "uint256",
          "name": "amount",
          "type": "uint256"
        }
      ],
      "name": "transferFrom",
      "outputs": [
        {
          "internalType": "bool",
          "name": "",
          "type": "bool"
        }
      ],
      "stateMutability": "nonpayable",
      "type": "function"
    },
    {
      "inputs": [
        {
          "internalType": "address",
          "name": "newOwner",
          "type": "address"
        }
      ],
      "name": "transferOwnership",
      "outputs": [],
      "stateMutability": "nonpayable",
      "type": "function"
    },
    {
      "inputs": [
        {
          "components": [
            {
              "internalType": "uint128",
              "name": "nonce",
              "type": "uint128"
            },
            {
              "internalType": "uint32",
              "name": "chainId",
              "type": "uint32"
            },
            {
              "internalType": "bytes",
              "name": "initiateSC",
              "type": "bytes"
            },
            {
              "internalType": "bytes",
              "name": "from",
              "type": "bytes"
            },
            {
              "internalType": "bytes",
              "name": "payload",
              "type": "bytes"
            },
            {
              "internalType": "bytes",
              "name": "signature",
              "type": "bytes"
            }
          ],
          "internalType": "struct ERC6358TransactionData",
          "name": "_data",
          "type": "tuple"
        }
      ],
      "name": "sendOmniverseTransaction",
      "outputs": [],
      "stateMutability": "nonpayable",
      "type": "function"
    },
    {
      "inputs": [],
      "name": "triggerExecution",
      "outputs": [],
      "stateMutability": "nonpayable",
      "type": "function"
    },
    {
      "inputs": [],
      "name": "getExecutableDelayedTx",
      "outputs": [
        {
          "components": [
            {
              "internalType": "bytes",
              "name": "sender",
              "type": "bytes"
            },
            {
              "internalType": "uint256",
              "name": "nonce",
              "type": "uint256"
            }
          ],
          "internalType": "struct SkywalkerFungible.DelayedTx",
          "name": "ret",
          "type": "tuple"
        }
      ],
      "stateMutability": "view",
      "type": "function",
      "constant": true
    },
    {
      "inputs": [],
      "name": "getDelayedTxCount",
      "outputs": [
        {
          "internalType": "uint256",
          "name": "",
          "type": "uint256"
        }
      ],
      "stateMutability": "view",
      "type": "function",
      "constant": true
    },
    {
      "inputs": [
        {
          "internalType": "bytes",
          "name": "_pk",
          "type": "bytes"
        }
      ],
      "name": "omniverseBalanceOf",
      "outputs": [
        {
          "internalType": "uint256",
          "name": "",
          "type": "uint256"
        }
      ],
      "stateMutability": "view",
      "type": "function",
      "constant": true
    },
    {
      "inputs": [
        {
          "internalType": "address",
          "name": "account",
          "type": "address"
        }
      ],
      "name": "balanceOf",
      "outputs": [
        {
          "internalType": "uint256",
          "name": "",
          "type": "uint256"
        }
      ],
      "stateMutability": "view",
      "type": "function",
      "constant": true
    },
    {
      "inputs": [
        {
          "components": [
            {
              "internalType": "uint32",
              "name": "chainId",
              "type": "uint32"
            },
            {
              "internalType": "bytes",
              "name": "contractAddr",
              "type": "bytes"
            }
          ],
          "internalType": "struct SkywalkerFungible.Member[]",
          "name": "_members",
          "type": "tuple[]"
        }
      ],
      "name": "setMembers",
      "outputs": [],
      "stateMutability": "nonpayable",
      "type": "function"
    },
    {
      "inputs": [],
      "name": "getMembers",
      "outputs": [
        {
          "components": [
            {
              "internalType": "uint32",
              "name": "chainId",
              "type": "uint32"
            },
            {
              "internalType": "bytes",
              "name": "contractAddr",
              "type": "bytes"
            }
          ],
          "internalType": "struct SkywalkerFungible.Member[]",
          "name": "",
          "type": "tuple[]"
        }
      ],
      "stateMutability": "view",
      "type": "function",
      "constant": true
    },
    {
      "inputs": [],
      "name": "decimals",
      "outputs": [
        {
          "internalType": "uint8",
          "name": "",
          "type": "uint8"
        }
      ],
      "stateMutability": "view",
      "type": "function",
      "constant": true
    },
    {
      "inputs": [
        {
          "internalType": "bytes",
          "name": "_pk",
          "type": "bytes"
        }
      ],
      "name": "getTransactionCount",
      "outputs": [
        {
          "internalType": "uint256",
          "name": "",
          "type": "uint256"
        }
      ],
      "stateMutability": "view",
      "type": "function",
      "constant": true
    },
    {
      "inputs": [
        {
          "internalType": "bytes",
          "name": "_user",
          "type": "bytes"
        },
        {
          "internalType": "uint256",
          "name": "_nonce",
          "type": "uint256"
        }
      ],
      "name": "getTransactionData",
      "outputs": [
        {
          "components": [
            {
              "internalType": "uint128",
              "name": "nonce",
              "type": "uint128"
            },
            {
              "internalType": "uint32",
              "name": "chainId",
              "type": "uint32"
            },
            {
              "internalType": "bytes",
              "name": "initiateSC",
              "type": "bytes"
            },
            {
              "internalType": "bytes",
              "name": "from",
              "type": "bytes"
            },
            {
              "internalType": "bytes",
              "name": "payload",
              "type": "bytes"
            },
            {
              "internalType": "bytes",
              "name": "signature",
              "type": "bytes"
            }
          ],
          "internalType": "struct ERC6358TransactionData",
          "name": "txData",
          "type": "tuple"
        },
        {
          "internalType": "uint256",
          "name": "timestamp",
          "type": "uint256"
        }
      ],
      "stateMutability": "view",
      "type": "function",
      "constant": true
    },
    {
      "inputs": [
        {
          "internalType": "uint256",
          "name": "_time",
          "type": "uint256"
        }
      ],
      "name": "setCoolingDownTime",
      "outputs": [],
      "stateMutability": "nonpayable",
      "type": "function"
    },
    {
      "inputs": [
        {
          "internalType": "bytes",
          "name": "_pk",
          "type": "bytes"
        }
      ],
      "name": "isMalicious",
      "outputs": [
        {
          "internalType": "bool",
          "name": "",
          "type": "bool"
        }
      ],
      "stateMutability": "view",
      "type": "function",
      "constant": true
    },
    {
      "inputs": [],
      "name": "getChainId",
      "outputs": [
        {
          "internalType": "uint32",
          "name": "",
          "type": "uint32"
        }
      ],
      "stateMutability": "view",
      "type": "function",
      "constant": true
    },
    {
      "inputs": [
        {
          "internalType": "bytes",
          "name": "_payload",
          "type": "bytes"
        }
      ],
      "name": "getPayloadRawData",
      "outputs": [
        {
          "internalType": "bytes",
          "name": "",
          "type": "bytes"
        }
      ],
      "stateMutability": "pure",
      "type": "function",
      "constant": true
    }
  ],
  "bytecode": "0x60806040523480156200001157600080fd5b506040516200363738038062003637833981016040819052620000349162000275565b8151829082906200004d90600390602085019062000102565b5080516200006390600490602084019062000102565b505050620000806200007a620000ac60201b60201c565b620000b0565b50506005805463ffffffff909216600160a01b0263ffffffff60a01b1990921691909117905562000339565b3390565b600580546001600160a01b038381166001600160a01b0319831681179093556040519116919082907f8be0079c531659141344cd1fd0a4f28419497f9722a3daafe3b4186f6b6457e090600090a35050565b8280546200011090620002fc565b90600052602060002090601f0160209004810192826200013457600085556200017f565b82601f106200014f57805160ff19168380011785556200017f565b828001600101855582156200017f579182015b828111156200017f57825182559160200191906001019062000162565b506200018d92915062000191565b5090565b5b808211156200018d576000815560010162000192565b634e487b7160e01b600052604160045260246000fd5b600082601f830112620001d057600080fd5b81516001600160401b0380821115620001ed57620001ed620001a8565b604051601f8301601f19908116603f01168101908282118183101715620002185762000218620001a8565b816040528381526020925086838588010111156200023557600080fd5b600091505b838210156200025957858201830151818301840152908201906200023a565b838211156200026b5760008385830101525b9695505050505050565b6000806000606084860312156200028b57600080fd5b835163ffffffff81168114620002a057600080fd5b60208501519093506001600160401b0380821115620002be57600080fd5b620002cc87838801620001be565b93506040860151915080821115620002e357600080fd5b50620002f286828701620001be565b9150509250925092565b600181811c908216806200031157607f821691505b602082108114156200033357634e487b7160e01b600052602260045260246000fd5b50919050565b6132ee80620003496000396000f3fe608060405234801561001057600080fd5b50600436106101cf5760003560e01c806352acf69c11610104578063a457c2d7116100a2578063dd62ed3e11610071578063dd62ed3e146103c7578063df097cac146103da578063f2fde38b146103e3578063f428051d146103f657600080fd5b8063a457c2d71461037b578063a9059cbb1461038e578063ad9faf3b146103a1578063d2924236146103b457600080fd5b8063715018a6116100de578063715018a61461033b5780638da5cb5b1461034357806395d89b411461035e5780639eab52531461036657600080fd5b806352acf69c1461030257806352ce58311461031557806370a082311461032857600080fd5b80632ac1c568116101715780633408e4701161014b5780633408e470146102a45780633713bb53146102c957806339509351146102dc57806339aaa281146102ef57600080fd5b80632ac1c568146102785780632b50666014610282578063313ce5671461029557600080fd5b80630d94bb52116101ad5780630d94bb521461022a57806313f108941461023c57806318160ddd1461025d57806323b872dd1461026557600080fd5b806306fdde03146101d4578063095ea7b3146101f25780630d5f6f9314610215575b600080fd5b6101dc610409565b6040516101e9919061267e565b60405180910390f35b6102056102003660046126ad565b61049b565b60405190151581526020016101e9565b61021d6104b3565b6040516101e991906126d9565b600b545b6040519081526020016101e9565b61024f61024a3660046127f9565b6105ff565b6040516101e9929190612836565b60025461022e565b6102056102733660046128e0565b6108a2565b6102806108c6565b005b61022e6102903660046127f9565b610eba565b604051600c81526020016101e9565b600554600160a01b900463ffffffff1660405163ffffffff90911681526020016101e9565b6102056102d73660046127f9565b610ee2565b6102056102ea3660046126ad565b610f11565b61024f6102fd36600461296a565b610f33565b6102806103103660046129b6565b600655565b61022e6103233660046129cf565b61125d565b61022e610336366004612a11565b611288565b6102806112eb565b6005546040516001600160a01b0390911681526020016101e9565b6101dc6112ff565b61036e61130e565b6040516101e99190612a2e565b6102056103893660046126ad565b611411565b61020561039c3660046126ad565b61148c565b6101dc6103af3660046127f9565b61149a565b6102806103c2366004612aa8565b6114e1565b61022e6103d5366004612b1d565b611616565b61022e60065481565b6102806103f1366004612a11565b611641565b610280610404366004612b56565b6116ba565b60606003805461041890612b91565b80601f016020809104026020016040519081016040528092919081815260200182805461044490612b91565b80156104915780601f1061046657610100808354040283529160200191610491565b820191906000526020600020905b81548152906001019060200180831161047457829003601f168201915b5050505050905090565b6000336104a98185856116cb565b5060019392505050565b604080518082019091526060815260006020820152600b54156105fc5760006008600b6000815481106104e8576104e8612bc6565b90600052602060002090600202016000016040516105069190612c4b565b9081526020016040518091039020905060065481600501546105289190612c6d565b42106105fa57600b60008154811061054257610542612bc6565b906000526020600020906002020160405180604001604052908160008201805461056b90612b91565b80601f016020809104026020016040519081016040528092919081815260200182805461059790612b91565b80156105e45780601f106105b9576101008083540402835291602001916105e4565b820191906000526020600020905b8154815290600101906020018083116105c757829003601f168201915b5050505050815260200160018201548152505091505b505b90565b80516020818301810180516008825292820193820193909320919092526040805160c08101825282546001600160801b0381168252600160801b900463ffffffff169381019390935260018201805492939284928401919061066090612b91565b80601f016020809104026020016040519081016040528092919081815260200182805461068c90612b91565b80156106d95780601f106106ae576101008083540402835291602001916106d9565b820191906000526020600020905b8154815290600101906020018083116106bc57829003601f168201915b505050505081526020016002820180546106f290612b91565b80601f016020809104026020016040519081016040528092919081815260200182805461071e90612b91565b801561076b5780601f106107405761010080835404028352916020019161076b565b820191906000526020600020905b81548152906001019060200180831161074e57829003601f168201915b5050505050815260200160038201805461078490612b91565b80601f01602080910402602001604051908101604052809291908181526020018280546107b090612b91565b80156107fd5780601f106107d2576101008083540402835291602001916107fd565b820191906000526020600020905b8154815290600101906020018083116107e057829003601f168201915b5050505050815260200160048201805461081690612b91565b80601f016020809104026020016040519081016040528092919081815260200182805461084290612b91565b801561088f5780601f106108645761010080835404028352916020019161088f565b820191906000526020600020905b81548152906001019060200180831161087257829003601f168201915b5050509190925250505060059091015482565b6000336108b08582856117ef565b6108bb858585611869565b506001949350505050565b600b5461090a5760405162461bcd60e51b815260206004820152600d60248201526c09cde40c8cad8c2f2cac840e8f609b1b60448201526064015b60405180910390fd5b60006008600b60008154811061092257610922612bc6565b90600052602060002090600202016000016040516109409190612c4b565b908152602001604051809103902090508060050154600014156109925760405162461bcd60e51b815260206004820152600a602482015269139bdd0818d858da195960b21b6044820152606401610901565b600b6000815481106109a6576109a6612bc6565b600091825260209091206001600290920201015481546001600160801b031614610a005760405162461bcd60e51b815260206004820152600b60248201526a2737b731b29032b93937b960a91b6044820152606401610901565b6005810154600654829190610a159082612c6d565b421015610a555760405162461bcd60e51b815260206004820152600e60248201526d4e6f742065786563757461626c6560901b6044820152606401610901565b600b8054610a6590600190612c85565b81548110610a7557610a75612bc6565b9060005260206000209060020201600b600081548110610a9757610a97612bc6565b90600052602060002090600202016000820181600001908054610ab990612b91565b610ac49291906124dc565b50600191820154910155600b805480610adf57610adf612c9c565b60008281526020812060001990920191600283020190610aff8282612563565b600182016000905550509055600083600501819055506000600783600201604051610b2a9190612c4b565b90815260405160209181900382019020805460018082018355600083815293909320875460069092020180546001600160801b039092166001600160801b031983168117825588546001600160a01b031990931617600160801b9283900463ffffffff169092029190911781558683018054929450879391928492849290830191610bb490612b91565b610bbf9291906124dc565b506002820181600201908054610bd490612b91565b610bdf9291906124dc565b506003820181600301908054610bf490612b91565b610bff9291906124dc565b506004820181600401908054610c1490612b91565b610c1f9291906124dc565b5050506005820154816005015550506000610cc5846003018054610c4290612b91565b80601f0160208091040260200160405190810160405280929190818152602001828054610c6e90612b91565b8015610cbb5780601f10610c9057610100808354040283529160200191610cbb565b820191906000526020600020905b815481529060010190602001808311610c9e57829003601f168201915b5050505050611a37565b805190915060ff16610d7557610d70846002018054610ce390612b91565b80601f0160208091040260200160405190810160405280929190818152602001828054610d0f90612b91565b8015610d5c5780601f10610d3157610100808354040283529160200191610d5c565b820191906000526020600020905b815481529060010190602001808311610d3f57829003601f168201915b505050505082602001518360400151611a9d565b610e6c565b805160ff1660011415610e2957610e17846002018054610d9490612b91565b80601f0160208091040260200160405190810160405280929190818152602001828054610dc090612b91565b8015610e0d5780601f10610de257610100808354040283529160200191610e0d565b820191906000526020600020905b815481529060010190602001808311610df057829003601f168201915b5050505050611c0f565b610d7081602001518260400151611cee565b805160ff1660021415610e6c57610e48846002018054610d9490612b91565b610e5a81602001518260400151611e04565b610e6c81602001518260400151611e68565b83546040517f9350b8dd01770a6760c5aa0d6eadd2fec9cb07c4165e778c532f0e261b55ce3d91610eab9160028801916001600160801b031690612cb2565b60405180910390a15050505050565b6000600782604051610ecc9190612d4a565b9081526040519081900360200190205492915050565b600080600783604051610ef59190612d4a565b9081526040519081900360200190206001015415159392505050565b6000336104a9818585610f248383611616565b610f2e9190612c6d565b6116cb565b610f7b6040518060c0016040528060006001600160801b03168152602001600063ffffffff168152602001606081526020016060815260200160608152602001606081525090565b60008060078686604051610f90929190612d66565b908152602001604051809103902090506000816000018581548110610fb757610fb7612bc6565b60009182526020918290206040805160c081018252600690930290910180546001600160801b038116845263ffffffff600160801b909104169383019390935260018301805493945091928492918401919061101290612b91565b80601f016020809104026020016040519081016040528092919081815260200182805461103e90612b91565b801561108b5780601f106110605761010080835404028352916020019161108b565b820191906000526020600020905b81548152906001019060200180831161106e57829003601f168201915b505050505081526020016002820180546110a490612b91565b80601f01602080910402602001604051908101604052809291908181526020018280546110d090612b91565b801561111d5780601f106110f25761010080835404028352916020019161111d565b820191906000526020600020905b81548152906001019060200180831161110057829003601f168201915b5050505050815260200160038201805461113690612b91565b80601f016020809104026020016040519081016040528092919081815260200182805461116290612b91565b80156111af5780601f10611184576101008083540402835291602001916111af565b820191906000526020600020905b81548152906001019060200180831161119257829003601f168201915b505050505081526020016004820180546111c890612b91565b80601f01602080910402602001604051908101604052809291908181526020018280546111f490612b91565b80156112415780601f1061121657610100808354040283529160200191611241565b820191906000526020600020905b81548152906001019060200180831161122457829003601f168201915b5050505050815250509350806005015492505050935093915050565b6000600a8383604051611271929190612d66565b908152602001604051809103902054905092915050565b6001600160a01b0381166000908152600c60205260408120805481906112ad90612b91565b151590506112be5750600092915050565b600a816040516112ce9190612c4b565b908152602001604051809103902054915050919050565b50919050565b6112f3611ed9565b6112fd6000611f33565b565b60606004805461041890612b91565b60606009805480602002602001604051908101604052809291908181526020016000905b828210156114085760008481526020908190206040805180820190915260028502909101805463ffffffff168252600181018054929391929184019161137790612b91565b80601f01602080910402602001604051908101604052809291908181526020018280546113a390612b91565b80156113f05780601f106113c5576101008083540402835291602001916113f0565b820191906000526020600020905b8154815290600101906020018083116113d357829003601f168201915b50505050508152505081526020019060010190611332565b50505050905090565b6000338161141f8286611616565b90508381101561147f5760405162461bcd60e51b815260206004820152602560248201527f45524332303a2064656372656173656420616c6c6f77616e63652062656c6f77604482015264207a65726f60d81b6064820152608401610901565b6108bb82868684036116cb565b6000336104a9818585611869565b606060006114a783611a37565b90508060000151816020015182604001516040516020016114ca93929190612d76565b604051602081830303815290604052915050919050565b6114e9611ed9565b60005b818110156115b4576009548110156115575782828281811061151057611510612bc6565b90506020028101906115229190612dbe565b6009828154811061153557611535612bc6565b9060005260206000209060020201818161154f9190612e2c565b9050506115a2565b600983838381811061156b5761156b612bc6565b905060200281019061157d9190612dbe565b81546001810183556000928352602090922090916002020161159f8282612e2c565b50505b806115ac81612f40565b9150506114ec565b50805b60095481101561161157600981815481106115d4576115d4612bc6565b600091825260208220600290910201805463ffffffff19168155906115fc6001830182612563565b5050808061160990612f40565b9150506115b7565b505050565b6001600160a01b03918216600090815260016020908152604080832093909416825291909152205490565b611649611ed9565b6001600160a01b0381166116ae5760405162461bcd60e51b815260206004820152602660248201527f4f776e61626c653a206e6577206f776e657220697320746865207a65726f206160448201526564647265737360d01b6064820152608401610901565b6116b781611f33565b50565b6116b76116c682612f82565b611f85565b6001600160a01b03831661172d5760405162461bcd60e51b8152602060048201526024808201527f45524332303a20617070726f76652066726f6d20746865207a65726f206164646044820152637265737360e01b6064820152608401610901565b6001600160a01b03821661178e5760405162461bcd60e51b815260206004820152602260248201527f45524332303a20617070726f766520746f20746865207a65726f206164647265604482015261737360f01b6064820152608401610901565b6001600160a01b0383811660008181526001602090815260408083209487168084529482529182902085905590518481527f8c5be1e5ebec7d5bd14f71427d1e84f3dd0314c0f7b2291e5b200ac8c7c3b925910160405180910390a3505050565b60006117fb8484611616565b9050600019811461186357818110156118565760405162461bcd60e51b815260206004820152601d60248201527f45524332303a20696e73756666696369656e7420616c6c6f77616e63650000006044820152606401610901565b61186384848484036116cb565b50505050565b6001600160a01b0383166118cd5760405162461bcd60e51b815260206004820152602560248201527f45524332303a207472616e736665722066726f6d20746865207a65726f206164604482015264647265737360d81b6064820152608401610901565b6001600160a01b03821661192f5760405162461bcd60e51b815260206004820152602360248201527f45524332303a207472616e7366657220746f20746865207a65726f206164647260448201526265737360e81b6064820152608401610901565b6001600160a01b038316600090815260208190526040902054818110156119a75760405162461bcd60e51b815260206004820152602660248201527f45524332303a207472616e7366657220616d6f756e7420657863656564732062604482015265616c616e636560d01b6064820152608401610901565b6001600160a01b038085166000908152602081905260408082208585039055918516815290812080548492906119de908490612c6d565b92505081905550826001600160a01b0316846001600160a01b03167fddf252ad1be2c89b69c2b068fc378daa952ba7f163c4a11628f55a4df523b3ef84604051611a2a91815260200190565b60405180910390a3611863565b611a5e6040518060600160405280600060ff16815260200160608152602001600081525090565b600080600084806020019051810190611a77919061305b565b6040805160608101825260ff909416845260208401929092529082015295945050505050565b611aa78382611e04565b6000600a84604051611ab99190612d4a565b9081526020016040518091039020549050818103600a85604051611add9190612d4a565b90815260200160405180910390208190555081600a84604051611b009190612d4a565b90815260200160405180910390206000828254611b1d9190612c6d565b90915550506040517f1d8380031597508b7d5d3df4999b8136789b62ed932115f9eb5897e19903792e90611b56908690869086906130f7565b60405180910390a1604051630d64e30760e21b815260009073__OmniverseProtocolHelper_______________906335938c1c90611b9890879060040161267e565b602060405180830381865af4158015611bb5573d6000803e3d6000fd5b505050506040513d601f19601f82011682018060405250810190611bd9919061312d565b6001600160a01b0381166000908152600c602090815260409091208651929350611c0792909187019061259d565b505050505050565b604051630d64e30760e21b815260009073__OmniverseProtocolHelper_______________906335938c1c90611c4990859060040161267e565b602060405180830381865af4158015611c66573d6000803e3d6000fd5b505050506040513d601f19601f82011682018060405250810190611c8a919061312d565b9050611c9e6005546001600160a01b031690565b6001600160a01b0316816001600160a01b031614611cea5760405162461bcd60e51b81526020600482015260096024820152682737ba1037bbb732b960b91b6044820152606401610901565b5050565b80600a83604051611cff9190612d4a565b90815260200160405180910390206000828254611d1c9190612c6d565b90915550506040517f1d8380031597508b7d5d3df4999b8136789b62ed932115f9eb5897e19903792e90611d53908490849061314a565b60405180910390a1604051630d64e30760e21b815260009073__OmniverseProtocolHelper_______________906335938c1c90611d9590869060040161267e565b602060405180830381865af4158015611db2573d6000803e3d6000fd5b505050506040513d601f19601f82011682018060405250810190611dd6919061312d565b6001600160a01b0381166000908152600c60209081526040909120855192935061186392909186019061259d565b6000600a83604051611e169190612d4a565b9081526020016040518091039020549050818110156116115760405162461bcd60e51b815260206004820152600e60248201526d4578636565642062616c616e636560901b6044820152606401610901565b80600a83604051611e799190612d4a565b90815260200160405180910390206000828254611e969190612c85565b90915550506040517f1d8380031597508b7d5d3df4999b8136789b62ed932115f9eb5897e19903792e90611ecd908490849061317a565b60405180910390a15050565b6005546001600160a01b031633146112fd5760405162461bcd60e51b815260206004820181905260248201527f4f776e61626c653a2063616c6c6572206973206e6f7420746865206f776e65726044820152606401610901565b600580546001600160a01b038381166001600160a01b0319831681179093556040519116919082907f8be0079c531659141344cd1fd0a4f28419497f9722a3daafe3b4186f6b6457e090600090a35050565b6000805b60095481101561206a57826020015163ffffffff1660098281548110611fb157611fb1612bc6565b600091825260209091206002909102015463ffffffff1614156120585782604001518051906020012060098281548110611fed57611fed612bc6565b906000526020600020906002020160010160405161200b9190612c4b565b6040518091039020146120535760405162461bcd60e51b815260206004820152601060248201526f57726f6e6720696e697469617465534360801b6044820152606401610901565b600191505b8061206281612f40565b915050611f89565b50806120ab5760405162461bcd60e51b815260206004820152601060248201526f57726f6e6720696e697469617465534360801b6044820152606401610901565b6120b88260600151610ee2565b156120f65760405162461bcd60e51b815260206004820152600e60248201526d55736572206d616c6963696f757360901b6044820152606401610901565b600073__OmniverseProtocolHelper_______________634e1e4d29600785606001516040516121269190612d4a565b9081526040519081900360200181206001600160e01b031960e084901b1682526121549187906004016131ad565b602060405180830381865af4158015612171573d6000803e3d6000fd5b505050506040513d601f19601f820116820180604052508101906121959190613256565b905060008160028111156121ab576121ab613277565b14156123b8576000600884606001516040516121c79190612d4a565b9081526020016040518091039020905080600501546000146122205760405162461bcd60e51b8152602060048201526012602482015271151c985b9cd858dd1a5bdb8818d858da195960721b6044820152606401610901565b61222984612431565b8351815460208087015163ffffffff16600160801b026001600160a01b03199092166001600160801b0390931692909217178255604085015180518692849261227b926001850192919091019061259d565b506060820151805161229791600284019160209091019061259d565b50608082015180516122b391600384019160209091019061259d565b5060a082015180516122cf91600484019160209091019061259d565b505042600583015550604080518082019091526060850151815284516001600160801b0316602080830191909152600b80546001810182556000919091528251805160029092027f0175b7a638427703f0dbe7bb9bbf987a2551717b34e79f33b5b1008d1fa01db901926123489284929091019061259d565b506020918201516001909101556005549085015163ffffffff908116600160a01b90920416141561186357606084015184516040517f101abacb8de0d05456bbaf85756276fd0c5225e9ede84f539855df28aba51a7e926123aa92909161328d565b60405180910390a150505050565b60028160028111156123cc576123cc613277565b141561241657606083015183516040517f9350b8dd01770a6760c5aa0d6eadd2fec9cb07c4165e778c532f0e261b55ce3d9261240992909161328d565b60405180910390a1505050565b600181600281111561242a5761242a613277565b5050505050565b60006124408260800151611a37565b805190915060ff1661245e57611cea82606001518260400151611e04565b805160ff166001141561247857611cea8260600151611c0f565b805160ff16600214156124a4576124928260600151611c0f565b611cea81602001518260400151611e04565b60405162461bcd60e51b815260206004820152600d60248201526c27a81031b7b2329032b93937b960991b6044820152606401610901565b8280546124e890612b91565b90600052602060002090601f01602090048101928261250a5760008555612557565b82601f1061251b5780548555612557565b8280016001018555821561255757600052602060002091601f016020900482015b8281111561255757825482559160010191906001019061253c565b506105fa929150612611565b50805461256f90612b91565b6000825580601f1061257f575050565b601f0160209004906000526020600020908101906116b79190612611565b8280546125a990612b91565b90600052602060002090601f0160209004810192826125cb5760008555612557565b82601f106125e457805160ff1916838001178555612557565b82800160010185558215612557579182015b828111156125575782518255916020019190600101906125f6565b5b808211156105fa5760008155600101612612565b60005b83811015612641578181015183820152602001612629565b838111156118635750506000910152565b6000815180845261266a816020860160208601612626565b601f01601f19169290920160200192915050565b6020815260006126916020830184612652565b9392505050565b6001600160a01b03811681146116b757600080fd5b600080604083850312156126c057600080fd5b82356126cb81612698565b946020939093013593505050565b6020815260008251604060208401526126f56060840182612652565b9050602084015160408401528091505092915050565b634e487b7160e01b600052604160045260246000fd5b60405160c0810167ffffffffffffffff811182821017156127445761274461270b565b60405290565b604051601f8201601f1916810167ffffffffffffffff811182821017156127735761277361270b565b604052919050565b600067ffffffffffffffff8211156127955761279561270b565b50601f01601f191660200190565b600082601f8301126127b457600080fd5b81356127c76127c28261277b565b61274a565b8181528460208386010111156127dc57600080fd5b816020850160208301376000918101602001919091529392505050565b60006020828403121561280b57600080fd5b813567ffffffffffffffff81111561282257600080fd5b61282e848285016127a3565b949350505050565b604081526001600160801b03835116604082015263ffffffff60208401511660608201526000604084015160c06080840152612876610100840182612652565b90506060850151603f19808584030160a08601526128948383612652565b925060808701519150808584030160c08601526128b18383612652565b925060a08701519150808584030160e0860152506128cf8282612652565b925050508260208301529392505050565b6000806000606084860312156128f557600080fd5b833561290081612698565b9250602084013561291081612698565b929592945050506040919091013590565b60008083601f84011261293357600080fd5b50813567ffffffffffffffff81111561294b57600080fd5b60208301915083602082850101111561296357600080fd5b9250929050565b60008060006040848603121561297f57600080fd5b833567ffffffffffffffff81111561299657600080fd5b6129a286828701612921565b909790965060209590950135949350505050565b6000602082840312156129c857600080fd5b5035919050565b600080602083850312156129e257600080fd5b823567ffffffffffffffff8111156129f957600080fd5b612a0585828601612921565b90969095509350505050565b600060208284031215612a2357600080fd5b813561269181612698565b60006020808301818452808551808352604092508286019150828160051b87010184880160005b83811015612a9a57888303603f190185528151805163ffffffff168452870151878401879052612a8787850182612652565b9588019593505090860190600101612a55565b509098975050505050505050565b60008060208385031215612abb57600080fd5b823567ffffffffffffffff80821115612ad357600080fd5b818501915085601f830112612ae757600080fd5b813581811115612af657600080fd5b8660208260051b8501011115612b0b57600080fd5b60209290920196919550909350505050565b60008060408385031215612b3057600080fd5b8235612b3b81612698565b91506020830135612b4b81612698565b809150509250929050565b600060208284031215612b6857600080fd5b813567ffffffffffffffff811115612b7f57600080fd5b820160c0818503121561269157600080fd5b600181811c90821680612ba557607f821691505b602082108114156112e557634e487b7160e01b600052602260045260246000fd5b634e487b7160e01b600052603260045260246000fd5b60008154612be981612b91565b60018281168015612c015760018114612c1257612c41565b60ff19841687528287019450612c41565b8560005260208060002060005b85811015612c385781548a820152908401908201612c1f565b50505082870194505b5050505092915050565b60006126918284612bdc565b634e487b7160e01b600052601160045260246000fd5b60008219821115612c8057612c80612c57565b500190565b600082821015612c9757612c97612c57565b500390565b634e487b7160e01b600052603160045260246000fd5b604081526000808454612cc481612b91565b8060408601526060600180841660008114612ce65760018114612cfa57612d2b565b60ff19851688840152608088019550612d2b565b8960005260208060002060005b86811015612d225781548b8201870152908401908201612d07565b8a018501975050505b5050505050809150506001600160801b03831660208301529392505050565b60008251612d5c818460208701612626565b9190910192915050565b8183823760009101908152919050565b60ff60f81b8460f81b16815260008351612d97816001850160208801612626565b60809390931b6001600160801b031916600192909301918201929092526011019392505050565b60008235603e19833603018112612d5c57600080fd5b63ffffffff811681146116b757600080fd5b601f82111561161157600081815260208120601f850160051c81016020861015612e0d5750805b601f850160051c820191505b81811015611c0757828155600101612e19565b8135612e3781612dd4565b63ffffffff811663ffffffff19835416178255506001808201602080850135601e19863603018112612e6857600080fd5b8501803567ffffffffffffffff811115612e8157600080fd5b8036038383011315612e9257600080fd5b612ea681612ea08654612b91565b86612de6565b6000601f821160018114612edc5760008315612ec457508382018501355b600019600385901b1c1916600184901b178655612f35565b600086815260209020601f19841690835b82811015612f0c57868501880135825593870193908901908701612eed565b5084821015612f2b5760001960f88660031b161c198785880101351681555b50508683881b0186555b505050505050505050565b6000600019821415612f5457612f54612c57565b5060010190565b80356001600160801b0381168114612f7257600080fd5b919050565b8035612f7281612dd4565b600060c08236031215612f9457600080fd5b612f9c612721565b612fa583612f5b565b8152612fb360208401612f77565b6020820152604083013567ffffffffffffffff80821115612fd357600080fd5b612fdf368387016127a3565b60408401526060850135915080821115612ff857600080fd5b613004368387016127a3565b6060840152608085013591508082111561301d57600080fd5b613029368387016127a3565b608084015260a085013591508082111561304257600080fd5b5061304f368286016127a3565b60a08301525092915050565b60008060006060848603121561307057600080fd5b835160ff8116811461308157600080fd5b602085015190935067ffffffffffffffff81111561309e57600080fd5b8401601f810186136130af57600080fd5b80516130bd6127c28261277b565b8181528760208385010111156130d257600080fd5b6130e3826020830160208601612626565b809450505050604084015190509250925092565b60608152600061310a6060830186612652565b828103602084015261311c8186612652565b915050826040830152949350505050565b60006020828403121561313f57600080fd5b815161269181612698565b606081526000606082015260806020820152600061316b6080830185612652565b90508260408301529392505050565b60608152600061318d6060830185612652565b828103602084015260008152602081019150508260408301529392505050565b828152604060208201526001600160801b03825116604082015263ffffffff60208301511660608201526000604083015160c060808401526131f3610100840182612652565b90506060840151603f19808584030160a08601526132118383612652565b925060808601519150808584030160c086015261322e8383612652565b925060a08601519150808584030160e08601525061324c8282612652565b9695505050505050565b60006020828403121561326857600080fd5b81516003811061269157600080fd5b634e487b7160e01b600052602160045260246000fd5b6040815260006132a06040830185612652565b90506001600160801b0383166020830152939250505056fea264697066735822122004bf059f72fec1fc698751d64890a5650aa78bb2003137b3d68f65054923eb9a64736f6c634300080a0033",
  "immutableReferences": {},
  "source": "// SPDX-License-Identifier: MIT\npragma solidity >=0.8.0 <0.9.0;\n\nimport \"@openzeppelin/contracts/access/Ownable.sol\";\nimport \"./ERC20.sol\";\nimport \"./libraries/OmniverseProtocolHelper.sol\";\nimport \"./interfaces/IERC6358Fungible.sol\";\n\n/**\n* @notice Fungible token data structure, from which the field `payload` in `ERC6358TransactionData` will be encoded\n*\n* @member op: The operation type\n* NOTE op: 0-31 are reserved values, 32-255 are custom values\n*           op: 0 - omniverse account `from` transfers `amount` tokens to omniverse account `exData`, `from` have at least `amount` tokens\n*           op: 1 - omniverse account `from` mints `amount` tokens to omniverse account `exData`\n*           op: 2 - omniverse account `from` burns `amount` tokens from his own, `from` have at least `amount` tokens\n* @member exData: The operation data. This sector could be empty and is determined by `op`. For example: \n            when `op` is 0 and 1, `exData` stores the omniverse account that receives.\n            when `op` is 2, `exData` is empty.\n* @member amount: The amount of tokens being operated\n */\nstruct Fungible {\n    uint8 op;\n    bytes exData;\n    uint256 amount;\n}\n\n/**\n * @notice Implementation of the {IERC6358Fungible} interface\n */\ncontract SkywalkerFungible is ERC20, Ownable, IERC6358Fungible {\n    uint8 constant TRANSFER = 0;\n    uint8 constant MINT = 1;\n    uint8 constant BURN = 2;\n\n    /** @notice Used to index a delayed transaction\n     * sender: The account which sent the transaction\n     * nonce: The nonce of the delayed transaction\n     */\n    struct DelayedTx {\n        bytes sender;\n        uint256 nonce;\n    }\n\n    /**\n     * @notice The member information\n     * chainId: The chain which the member belongs to\n     * contractAddr: The contract address on the member chain\n     */\n    struct Member {\n        uint32 chainId;\n        bytes contractAddr;\n    }\n\n    // Chain id used to distinguish different chains\n    uint32 chainId;\n    // O-transaction cooling down time\n    uint256 public cdTime;\n    // Omniverse accounts record\n    mapping(bytes => RecordedCertificate) transactionRecorder;\n    // Transactions to be executed\n    mapping(bytes => OmniverseTx) public transactionCache;\n\n    // All information of chains on which the token is deployed\n    Member[] members;\n    // Omniverse balances\n    mapping(bytes => uint256) omniverseBalances;\n    // Delay-executing transactions\n    DelayedTx[] delayedTxs;\n    // Account map from evm address to public key\n    mapping(address => bytes) accountsMap;\n\n    event OmniverseTokenTransfer(bytes from, bytes to, uint256 value);\n\n    /**\n     * @notice Initiates the contract\n     * @param _chainId The chain which the contract is deployed on\n     * @param _name The name of the token\n     * @param _symbol The symbol of the token\n     */\n    constructor(uint32 _chainId, string memory _name, string memory _symbol) ERC20(_name, _symbol) {\n        chainId = _chainId;\n    }\n\n    /**\n     * @notice See {IERC6358Fungible-sendOmniverseTransaction}\n     * Send an omniverse transaction\n     */\n    function sendOmniverseTransaction(ERC6358TransactionData calldata _data) external override {\n        _omniverseTransaction(_data);\n    }\n\n    /**\n     * @notice See {IERC6358Fungible-triggerExecution}\n     */\n    function triggerExecution() external {\n        require(delayedTxs.length > 0, \"No delayed tx\");\n\n        OmniverseTx storage cache = transactionCache[delayedTxs[0].sender];\n        require(cache.timestamp != 0, \"Not cached\");\n        require(cache.txData.nonce == delayedTxs[0].nonce, \"Nonce error\");\n        (ERC6358TransactionData storage txData, uint256 timestamp) = (cache.txData, cache.timestamp);\n        require(block.timestamp >= timestamp + cdTime, \"Not executable\");\n        delayedTxs[0] = delayedTxs[delayedTxs.length - 1];\n        delayedTxs.pop();\n        cache.timestamp = 0;\n        // Add to transaction recorder\n        RecordedCertificate storage rc = transactionRecorder[txData.from];\n        rc.txList.push(cache);\n\n        Fungible memory fungible = decodeData(txData.payload);\n        if (fungible.op == TRANSFER) {\n            _omniverseTransfer(txData.from, fungible.exData, fungible.amount);\n        }\n        else if (fungible.op == MINT) {\n            _checkOwner(txData.from);\n            _omniverseMint(fungible.exData, fungible.amount);\n        }\n        else if (fungible.op == BURN) {\n            _checkOwner(txData.from);\n            _checkOmniverseBurn(fungible.exData, fungible.amount);\n            _omniverseBurn(fungible.exData, fungible.amount);\n        }\n        emit TransactionExecuted(txData.from, txData.nonce);\n    }\n    \n    /**\n     * @notice Check if the transaction can be executed successfully\n     */\n    function _checkExecution(ERC6358TransactionData memory txData) internal view {\n        Fungible memory fungible = decodeData(txData.payload);\n        if (fungible.op == TRANSFER) {\n            _checkOmniverseTransfer(txData.from, fungible.amount);\n        }\n        else if (fungible.op == MINT) {\n            _checkOwner(txData.from);\n        }\n        else if (fungible.op == BURN) {\n            _checkOwner(txData.from);\n            _checkOmniverseBurn(fungible.exData, fungible.amount);\n        }\n        else {\n            revert(\"OP code error\");\n        }\n    }\n\n    /**\n     * @notice Returns the nearest exexutable delayed transaction info\n     * or returns default if not found\n     */\n    function getExecutableDelayedTx() external view returns (DelayedTx memory ret) {\n        if (delayedTxs.length > 0) {\n            OmniverseTx storage cache = transactionCache[delayedTxs[0].sender];\n            if (block.timestamp >= cache.timestamp + cdTime) {\n                ret = delayedTxs[0];\n            }\n        }\n    }\n\n    /**\n     * @notice Returns the count of delayed transactions\n     */\n    function getDelayedTxCount() external view returns (uint256) {\n        return delayedTxs.length;\n    }\n\n    /**\n     * @notice See {IERC6358Fungible-omniverseBalanceOf}\n     * Returns the omniverse balance of a user\n     */\n    function omniverseBalanceOf(bytes calldata _pk) external view override returns (uint256) {\n        return omniverseBalances[_pk];\n    }\n\n    /**\n     * @notice See {IERC20-balanceOf}.\n     */\n    function balanceOf(address account) public view virtual override returns (uint256) {\n        bytes storage pk = accountsMap[account];\n        if (pk.length == 0) {\n            return 0;\n        }\n        else {\n            return omniverseBalances[pk];\n        }\n    }\n\n    /**\n     * @notice Receive and check an omniverse transaction\n     */\n    function _omniverseTransaction(ERC6358TransactionData memory _data) internal {\n        // Check if the tx initiateSC is correct\n        bool found = false;\n        for (uint256 i = 0; i < members.length; i++) {\n            if (members[i].chainId == _data.chainId) {\n                require(keccak256(members[i].contractAddr) == keccak256(_data.initiateSC), \"Wrong initiateSC\");\n                found = true;\n            }\n        }\n        require(found, \"Wrong initiateSC\");\n\n        // Check if the sender is honest\n        // to be continued, we can use block list instead of `isMalicious`\n        require(!isMalicious(_data.from), \"User malicious\");\n\n        // Verify the signature\n        VerifyResult verifyRet = OmniverseProtocolHelper.verifyTransaction(transactionRecorder[_data.from], _data);\n\n        if (verifyRet == VerifyResult.Success) {\n            // Check cache\n            OmniverseTx storage cache = transactionCache[_data.from];\n            require(cache.timestamp == 0, \"Transaction cached\");\n            // Logic verification\n            _checkExecution(_data);\n            // Delays in executing\n            cache.txData = _data;\n            cache.timestamp = block.timestamp;\n            delayedTxs.push(DelayedTx(_data.from, _data.nonce));\n            if (_data.chainId == chainId) {\n                emit TransactionSent(_data.from, _data.nonce);\n            }\n        }\n        else if (verifyRet == VerifyResult.Duplicated) {\n            emit TransactionExecuted(_data.from, _data.nonce);\n        }\n        else if (verifyRet == VerifyResult.Malicious) {\n            // Slash\n        }\n    }\n\n    /**\n     * @notice Check if an omniverse transfer operation can be executed successfully\n     */\n    function _checkOmniverseTransfer(bytes memory _from, uint256 _amount) internal view {\n        uint256 fromBalance = omniverseBalances[_from];\n        require(fromBalance >= _amount, \"Exceed balance\");\n    }\n\n    /**\n     * @notice Exucute an omniverse transfer operation\n     */\n    function _omniverseTransfer(bytes memory _from, bytes memory _to, uint256 _amount) internal {\n        _checkOmniverseTransfer(_from, _amount);\n        \n        uint256 fromBalance = omniverseBalances[_from];\n        \n        unchecked {\n            omniverseBalances[_from] = fromBalance - _amount;\n        }\n        omniverseBalances[_to] += _amount;\n\n        emit OmniverseTokenTransfer(_from, _to, _amount);\n\n        address toAddr = OmniverseProtocolHelper.pkToAddress(_to);\n        accountsMap[toAddr] = _to;\n    }\n    \n    /**\n     * @notice Check if the public key is the owner\n     */\n    function _checkOwner(bytes memory _pk) internal view {\n        address fromAddr = OmniverseProtocolHelper.pkToAddress(_pk);\n        require(fromAddr == owner(), \"Not owner\");\n    }\n\n    /**\n     * @notice Execute an omniverse mint operation\n     */\n    function _omniverseMint(bytes memory _to, uint256 _amount) internal {\n        omniverseBalances[_to] += _amount;\n        emit OmniverseTokenTransfer(\"\", _to, _amount);\n\n        address toAddr = OmniverseProtocolHelper.pkToAddress(_to);\n        accountsMap[toAddr] = _to;\n    }\n\n    /**\n     * @notice Check if an omniverse burn operation can be executed successfully\n     */\n    function _checkOmniverseBurn(bytes memory _from, uint256 _amount) internal view {\n        uint256 fromBalance = omniverseBalances[_from];\n        require(fromBalance >= _amount, \"Exceed balance\");\n    }\n\n    /**\n     * @notice Execute an omniverse burn operation\n     */\n    function _omniverseBurn(bytes memory _from, uint256 _amount) internal {\n        omniverseBalances[_from] -= _amount;\n        emit OmniverseTokenTransfer(_from, \"\", _amount);\n    }\n\n    /**\n     * @notice Add new chain members to the token\n     */\n    function setMembers(Member[] calldata _members) external onlyOwner {\n        for (uint256 i = 0; i < _members.length; i++) {\n            if (i < members.length) {\n                members[i] = _members[i];\n            }\n            else {\n                members.push(_members[i]);\n            }\n        }\n\n        for (uint256 i = _members.length; i < members.length; i++) {\n            delete members[i];\n        }\n    }\n\n    /**\n     * @notice Returns chain members of the token\n     */\n    function getMembers() external view returns (Member[] memory) {\n        return members;\n    }\n    \n    /**\n     @notice See {IERC20-decimals}.\n     */\n    function decimals() public view virtual override returns (uint8) {\n        return 12;\n    }\n\n    /**\n     * @notice See IERC6358Fungible\n     */\n    function getTransactionCount(bytes memory _pk) external override view returns (uint256) {\n        return transactionRecorder[_pk].txList.length;\n    }\n\n    /**\n     * @notice See IERC6358Fungible\n     */\n    function getTransactionData(bytes calldata _user, uint256 _nonce) external override view returns (ERC6358TransactionData memory txData, uint256 timestamp) {\n        RecordedCertificate storage rc = transactionRecorder[_user];\n        OmniverseTx storage omniTx = rc.txList[_nonce];\n        txData = omniTx.txData;\n        timestamp = omniTx.timestamp;\n    }\n\n    /**\n     * @notice Set the cooling down time of an omniverse transaction\n     */\n    function setCoolingDownTime(uint256 _time) external {\n        cdTime = _time;\n    }\n\n    /**\n     * @notice Index the user is malicious or not\n     */\n    function isMalicious(bytes memory _pk) public view returns (bool) {\n        RecordedCertificate storage rc = transactionRecorder[_pk];\n        return (rc.evilTxList.length > 0);\n    }\n\n    /**\n     * @notice See IERC6358Fungible\n     */\n    function getChainId() external view returns (uint32) {\n        return chainId;\n    }\n\n    /**\n     * @notice Decode `_data` from bytes to Fungible\n     */\n    function decodeData(bytes memory _data) internal pure returns (Fungible memory) {\n        (uint8 op, bytes memory exData, uint256 amount) = abi.decode(_data, (uint8, bytes, uint256));\n        return Fungible(op, exData, amount);\n    }\n\n    /**\n     * @notice See IERC6358Application\n     */\n    function getPayloadRawData(bytes memory _payload) external pure returns (bytes memory) {\n        Fungible memory fungible = decodeData(_payload);\n        return abi.encodePacked(fungible.op, fungible.exData, uint128(fungible.amount));\n    }\n}",
  "sourcePath": "/home/ubuntu/george/dante/omniverse-system-test/contracts/omniverse-evm/contracts/contracts/SkywalkerFungible.sol",
  "compiler": {
    "name": "solc",
    "version": "0.8.10+commit.fc410830.Emscripten.clang"
  },
  "schemaVersion": "3.4.13",
  "updatedAt": "2023-05-16T02:11:27.587Z",
  "networkType": "ethereum",
  "devdoc": {
    "kind": "dev",
    "methods": {
      "allowance(address,address)": {
        "details": "See {IERC20-allowance}."
      },
      "approve(address,uint256)": {
        "details": "See {IERC20-approve}. NOTE: If `amount` is the maximum `uint256`, the allowance is not updated on `transferFrom`. This is semantically equivalent to an infinite approval. Requirements: - `spender` cannot be the zero address."
      },
      "constructor": {
        "params": {
          "_chainId": "The chain which the contract is deployed on",
          "_name": "The name of the token",
          "_symbol": "The symbol of the token"
        }
      },
      "decreaseAllowance(address,uint256)": {
        "details": "Atomically decreases the allowance granted to `spender` by the caller. This is an alternative to {approve} that can be used as a mitigation for problems described in {IERC20-approve}. Emits an {Approval} event indicating the updated allowance. Requirements: - `spender` cannot be the zero address. - `spender` must have allowance for the caller of at least `subtractedValue`."
      },
      "increaseAllowance(address,uint256)": {
        "details": "Atomically increases the allowance granted to `spender` by the caller. This is an alternative to {approve} that can be used as a mitigation for problems described in {IERC20-approve}. Emits an {Approval} event indicating the updated allowance. Requirements: - `spender` cannot be the zero address."
      },
      "name()": {
        "details": "Returns the name of the token."
      },
      "owner()": {
        "details": "Returns the address of the current owner."
      },
      "renounceOwnership()": {
        "details": "Leaves the contract without owner. It will not be possible to call `onlyOwner` functions anymore. Can only be called by the current owner. NOTE: Renouncing ownership will leave the contract without an owner, thereby removing any functionality that is only available to the owner."
      },
      "symbol()": {
        "details": "Returns the symbol of the token, usually a shorter version of the name."
      },
      "totalSupply()": {
        "details": "See {IERC20-totalSupply}."
      },
      "transfer(address,uint256)": {
        "details": "See {IERC20-transfer}. Requirements: - `to` cannot be the zero address. - the caller must have a balance of at least `amount`."
      },
      "transferFrom(address,address,uint256)": {
        "details": "See {IERC20-transferFrom}. Emits an {Approval} event indicating the updated allowance. This is not required by the EIP. See the note at the beginning of {ERC20}. NOTE: Does not update the allowance if the current allowance is the maximum `uint256`. Requirements: - `from` and `to` cannot be the zero address. - `from` must have a balance of at least `amount`. - the caller must have allowance for ``from``'s tokens of at least `amount`."
      },
      "transferOwnership(address)": {
        "details": "Transfers ownership of the contract to a new account (`newOwner`). Can only be called by the current owner."
      }
    },
    "version": 1
  },
  "userdoc": {
    "events": {
      "TransactionExecuted(bytes,uint256)": {
        "notice": "Emitted when a o-transaction which has nonce `nonce` and was signed by user `pk` is executed"
      },
      "TransactionSent(bytes,uint256)": {
        "notice": "Emitted when a o-transaction which has nonce `nonce` and was signed by user `pk` is sent by calling {sendOmniverseTransaction}"
      }
    },
    "kind": "user",
    "methods": {
      "balanceOf(address)": {
        "notice": "See {IERC20-balanceOf}."
      },
      "constructor": {
        "notice": "Initiates the contract"
      },
      "decimals()": {
        "notice": "See {IERC20-decimals}."
      },
      "getChainId()": {
        "notice": "See IERC6358Fungible"
      },
      "getDelayedTxCount()": {
        "notice": "Returns the count of delayed transactions"
      },
      "getExecutableDelayedTx()": {
        "notice": "Returns the nearest exexutable delayed transaction info or returns default if not found"
      },
      "getMembers()": {
        "notice": "Returns chain members of the token"
      },
      "getPayloadRawData(bytes)": {
        "notice": "See IERC6358Application"
      },
      "getTransactionCount(bytes)": {
        "notice": "See IERC6358Fungible"
      },
      "getTransactionData(bytes,uint256)": {
        "notice": "See IERC6358Fungible"
      },
      "isMalicious(bytes)": {
        "notice": "Index the user is malicious or not"
      },
      "omniverseBalanceOf(bytes)": {
        "notice": "See {IERC6358Fungible-omniverseBalanceOf} Returns the omniverse balance of a user"
      },
      "sendOmniverseTransaction((uint128,uint32,bytes,bytes,bytes,bytes))": {
        "notice": "See {IERC6358Fungible-sendOmniverseTransaction} Send an omniverse transaction"
      },
      "setCoolingDownTime(uint256)": {
        "notice": "Set the cooling down time of an omniverse transaction"
      },
      "setMembers((uint32,bytes)[])": {
        "notice": "Add new chain members to the token"
      },
      "triggerExecution()": {
        "notice": "See {IERC6358Fungible-triggerExecution}"
      }
    },
    "notice": "Implementation of the {IERC6358Fungible} interface",
    "version": 1
  }
}